{
  "_format": "hh-sol-artifact-1",
  "contractName": "NFTMarketplace",
  "sourceName": "contracts/NFTMarketplace.sol",
  "abi": [
    {
      "inputs": [],
      "stateMutability": "nonpayable",
      "type": "constructor"
    },
    {
      "anonymous": false,
      "inputs": [
        {
          "indexed": true,
          "internalType": "address",
          "name": "owner",
          "type": "address"
        },
        {
          "indexed": true,
          "internalType": "address",
          "name": "approved",
          "type": "address"
        },
        {
          "indexed": true,
          "internalType": "uint256",
          "name": "tokenId",
          "type": "uint256"
        }
      ],
      "name": "Approval",
      "type": "event"
    },
    {
      "anonymous": false,
      "inputs": [
        {
          "indexed": true,
          "internalType": "address",
          "name": "owner",
          "type": "address"
        },
        {
          "indexed": true,
          "internalType": "address",
          "name": "operator",
          "type": "address"
        },
        {
          "indexed": false,
          "internalType": "bool",
          "name": "approved",
          "type": "bool"
        }
      ],
      "name": "ApprovalForAll",
      "type": "event"
    },
    {
      "anonymous": false,
      "inputs": [
        {
          "indexed": false,
          "internalType": "uint256",
          "name": "_fromTokenId",
          "type": "uint256"
        },
        {
          "indexed": false,
          "internalType": "uint256",
          "name": "_toTokenId",
          "type": "uint256"
        }
      ],
      "name": "BatchMetadataUpdate",
      "type": "event"
    },
    {
      "anonymous": false,
      "inputs": [
        {
          "indexed": false,
          "internalType": "uint256",
          "name": "_tokenId",
          "type": "uint256"
        }
      ],
      "name": "MetadataUpdate",
      "type": "event"
    },
    {
      "anonymous": false,
      "inputs": [
        {
          "indexed": true,
          "internalType": "address",
          "name": "from",
          "type": "address"
        },
        {
          "indexed": true,
          "internalType": "address",
          "name": "to",
          "type": "address"
        },
        {
          "indexed": true,
          "internalType": "uint256",
          "name": "tokenId",
          "type": "uint256"
        }
      ],
      "name": "Transfer",
      "type": "event"
    },
    {
      "anonymous": false,
      "inputs": [
        {
          "indexed": true,
          "internalType": "uint256",
          "name": "tokenId",
          "type": "uint256"
        },
        {
          "indexed": false,
          "internalType": "address",
          "name": "seller",
          "type": "address"
        },
        {
          "indexed": false,
          "internalType": "address",
          "name": "owner",
          "type": "address"
        },
        {
          "indexed": false,
          "internalType": "uint256",
          "name": "price",
          "type": "uint256"
        },
        {
          "indexed": false,
          "internalType": "bool",
          "name": "sold",
          "type": "bool"
        }
      ],
      "name": "idMarketItemCreated",
      "type": "event"
    },
    {
      "inputs": [
        {
          "internalType": "address",
          "name": "to",
          "type": "address"
        },
        {
          "internalType": "uint256",
          "name": "tokenId",
          "type": "uint256"
        }
      ],
      "name": "approve",
      "outputs": [],
      "stateMutability": "nonpayable",
      "type": "function"
    },
    {
      "inputs": [
        {
          "internalType": "address",
          "name": "owner",
          "type": "address"
        }
      ],
      "name": "balanceOf",
      "outputs": [
        {
          "internalType": "uint256",
          "name": "",
          "type": "uint256"
        }
      ],
      "stateMutability": "view",
      "type": "function"
    },
    {
      "inputs": [
        {
          "internalType": "uint256",
          "name": "tokenId",
          "type": "uint256"
        }
      ],
      "name": "createMarketSale",
      "outputs": [],
      "stateMutability": "payable",
      "type": "function"
    },
    {
      "inputs": [
        {
          "internalType": "string",
          "name": "tokenURI",
          "type": "string"
        },
        {
          "internalType": "uint256",
          "name": "price",
          "type": "uint256"
        }
      ],
      "name": "createToken",
      "outputs": [
        {
          "internalType": "uint256",
          "name": "",
          "type": "uint256"
        }
      ],
      "stateMutability": "payable",
      "type": "function"
    },
    {
      "inputs": [],
      "name": "fetchItemsListed",
      "outputs": [
        {
          "components": [
            {
              "internalType": "uint256",
              "name": "tokenId",
              "type": "uint256"
            },
            {
              "internalType": "address payable",
              "name": "seller",
              "type": "address"
            },
            {
              "internalType": "address payable",
              "name": "owner",
              "type": "address"
            },
            {
              "internalType": "uint256",
              "name": "price",
              "type": "uint256"
            },
            {
              "internalType": "bool",
              "name": "sold",
              "type": "bool"
            }
          ],
          "internalType": "struct NFTMarketplace.MarketItem[]",
          "name": "",
          "type": "tuple[]"
        }
      ],
      "stateMutability": "view",
      "type": "function"
    },
    {
      "inputs": [],
      "name": "fetchMarket",
      "outputs": [
        {
          "components": [
            {
              "internalType": "uint256",
              "name": "tokenId",
              "type": "uint256"
            },
            {
              "internalType": "address payable",
              "name": "seller",
              "type": "address"
            },
            {
              "internalType": "address payable",
              "name": "owner",
              "type": "address"
            },
            {
              "internalType": "uint256",
              "name": "price",
              "type": "uint256"
            },
            {
              "internalType": "bool",
              "name": "sold",
              "type": "bool"
            }
          ],
          "internalType": "struct NFTMarketplace.MarketItem[]",
          "name": "",
          "type": "tuple[]"
        }
      ],
      "stateMutability": "view",
      "type": "function"
    },
    {
      "inputs": [],
      "name": "fetchMyNFT",
      "outputs": [
        {
          "components": [
            {
              "internalType": "uint256",
              "name": "tokenId",
              "type": "uint256"
            },
            {
              "internalType": "address payable",
              "name": "seller",
              "type": "address"
            },
            {
              "internalType": "address payable",
              "name": "owner",
              "type": "address"
            },
            {
              "internalType": "uint256",
              "name": "price",
              "type": "uint256"
            },
            {
              "internalType": "bool",
              "name": "sold",
              "type": "bool"
            }
          ],
          "internalType": "struct NFTMarketplace.MarketItem[]",
          "name": "",
          "type": "tuple[]"
        }
      ],
      "stateMutability": "view",
      "type": "function"
    },
    {
      "inputs": [
        {
          "internalType": "uint256",
          "name": "tokenId",
          "type": "uint256"
        }
      ],
      "name": "getApproved",
      "outputs": [
        {
          "internalType": "address",
          "name": "",
          "type": "address"
        }
      ],
      "stateMutability": "view",
      "type": "function"
    },
    {
      "inputs": [],
      "name": "getListingPrice",
      "outputs": [
        {
          "internalType": "uint256",
          "name": "",
          "type": "uint256"
        }
      ],
      "stateMutability": "view",
      "type": "function"
    },
    {
      "inputs": [
        {
          "internalType": "address",
          "name": "owner",
          "type": "address"
        },
        {
          "internalType": "address",
          "name": "operator",
          "type": "address"
        }
      ],
      "name": "isApprovedForAll",
      "outputs": [
        {
          "internalType": "bool",
          "name": "",
          "type": "bool"
        }
      ],
      "stateMutability": "view",
      "type": "function"
    },
    {
      "inputs": [],
      "name": "name",
      "outputs": [
        {
          "internalType": "string",
          "name": "",
          "type": "string"
        }
      ],
      "stateMutability": "view",
      "type": "function"
    },
    {
      "inputs": [
        {
          "internalType": "uint256",
          "name": "tokenId",
          "type": "uint256"
        }
      ],
      "name": "ownerOf",
      "outputs": [
        {
          "internalType": "address",
          "name": "",
          "type": "address"
        }
      ],
      "stateMutability": "view",
      "type": "function"
    },
    {
      "inputs": [
        {
          "internalType": "uint256",
          "name": "tokenId",
          "type": "uint256"
        },
        {
          "internalType": "uint256",
          "name": "price",
          "type": "uint256"
        }
      ],
      "name": "reSellToken",
      "outputs": [],
      "stateMutability": "payable",
      "type": "function"
    },
    {
      "inputs": [
        {
          "internalType": "address",
          "name": "from",
          "type": "address"
        },
        {
          "internalType": "address",
          "name": "to",
          "type": "address"
        },
        {
          "internalType": "uint256",
          "name": "tokenId",
          "type": "uint256"
        }
      ],
      "name": "safeTransferFrom",
      "outputs": [],
      "stateMutability": "nonpayable",
      "type": "function"
    },
    {
      "inputs": [
        {
          "internalType": "address",
          "name": "from",
          "type": "address"
        },
        {
          "internalType": "address",
          "name": "to",
          "type": "address"
        },
        {
          "internalType": "uint256",
          "name": "tokenId",
          "type": "uint256"
        },
        {
          "internalType": "bytes",
          "name": "data",
          "type": "bytes"
        }
      ],
      "name": "safeTransferFrom",
      "outputs": [],
      "stateMutability": "nonpayable",
      "type": "function"
    },
    {
      "inputs": [
        {
          "internalType": "address",
          "name": "operator",
          "type": "address"
        },
        {
          "internalType": "bool",
          "name": "approved",
          "type": "bool"
        }
      ],
      "name": "setApprovalForAll",
      "outputs": [],
      "stateMutability": "nonpayable",
      "type": "function"
    },
    {
      "inputs": [
        {
          "internalType": "bytes4",
          "name": "interfaceId",
          "type": "bytes4"
        }
      ],
      "name": "supportsInterface",
      "outputs": [
        {
          "internalType": "bool",
          "name": "",
          "type": "bool"
        }
      ],
      "stateMutability": "view",
      "type": "function"
    },
    {
      "inputs": [],
      "name": "symbol",
      "outputs": [
        {
          "internalType": "string",
          "name": "",
          "type": "string"
        }
      ],
      "stateMutability": "view",
      "type": "function"
    },
    {
      "inputs": [
        {
          "internalType": "uint256",
          "name": "tokenId",
          "type": "uint256"
        }
      ],
      "name": "tokenURI",
      "outputs": [
        {
          "internalType": "string",
          "name": "",
          "type": "string"
        }
      ],
      "stateMutability": "view",
      "type": "function"
    },
    {
      "inputs": [
        {
          "internalType": "address",
          "name": "from",
          "type": "address"
        },
        {
          "internalType": "address",
          "name": "to",
          "type": "address"
        },
        {
          "internalType": "uint256",
          "name": "tokenId",
          "type": "uint256"
        }
      ],
      "name": "transferFrom",
      "outputs": [],
      "stateMutability": "nonpayable",
      "type": "function"
    },
    {
      "inputs": [
        {
          "internalType": "uint256",
          "name": "_listingPrice",
          "type": "uint256"
        }
      ],
      "name": "updateListingPrice",
      "outputs": [],
      "stateMutability": "payable",
      "type": "function"
    }
  ],
  "bytecode": "0x60806040526605543df729c00060095534801561001b57600080fd5b506040518060400160405280601381526020017f4e4654204d657461766572736520546f6b656e000000000000000000000000008152506040518060400160405280600581526020017f4d594e465400000000000000000000000000000000000000000000000000000081525081600090816100979190610340565b5080600190816100a79190610340565b50505033600a60006101000a81548173ffffffffffffffffffffffffffffffffffffffff021916908373ffffffffffffffffffffffffffffffffffffffff160217905550610412565b600081519050919050565b7f4e487b7100000000000000000000000000000000000000000000000000000000600052604160045260246000fd5b7f4e487b7100000000000000000000000000000000000000000000000000000000600052602260045260246000fd5b6000600282049050600182168061017157607f821691505b6020821081036101845761018361012a565b5b50919050565b60008190508160005260206000209050919050565b60006020601f8301049050919050565b600082821b905092915050565b6000600883026101ec7fffffffffffffffffffffffffffffffffffffffffffffffffffffffffffffffff826101af565b6101f686836101af565b95508019841693508086168417925050509392505050565b6000819050919050565b6000819050919050565b600061023d6102386102338461020e565b610218565b61020e565b9050919050565b6000819050919050565b61025783610222565b61026b61026382610244565b8484546101bc565b825550505050565b600090565b610280610273565b61028b81848461024e565b505050565b5b818110156102af576102a4600082610278565b600181019050610291565b5050565b601f8211156102f4576102c58161018a565b6102ce8461019f565b810160208510156102dd578190505b6102f16102e98561019f565b830182610290565b50505b505050565b600082821c905092915050565b6000610317600019846008026102f9565b1980831691505092915050565b60006103308383610306565b9150826002028217905092915050565b610349826100f0565b67ffffffffffffffff811115610362576103616100fb565b5b61036c8254610159565b6103778282856102b3565b600060209050601f8311600181146103aa5760008415610398578287015190505b6103a28582610324565b86555061040a565b601f1984166103b88661018a565b60005b828110156103e0578489015182556001820191506020850194506020810190506103bb565b868310156103fd57848901516103f9601f891682610306565b8355505b6001600288020188555050505b505050505050565b6141e0806104216000396000f3fe60806040526004361061012a5760003560e01c806370a08231116100ab578063ae677aa31161006f578063ae677aa3146103ea578063b88d4fde14610406578063be9af5361461042f578063c18763f71461044b578063c87b56dd14610476578063e985e9c5146104b35761012a565b806370a082311461030d57806372b3b6201461034a57806385535b251461037a57806395d89b4114610396578063a22cb465146103c15761012a565b806323b872dd116100f257806323b872dd146102285780633143ec871461025157806342842e0e1461027c57806345f8fa80146102a55780636352211e146102d05761012a565b806301ffc9a71461012f57806306fdde031461016c578063081812fc14610197578063095ea7b3146101d457806312e85585146101fd575b600080fd5b34801561013b57600080fd5b5061015660048036038101906101519190612b12565b6104f0565b6040516101639190612b5a565b60405180910390f35b34801561017857600080fd5b50610181610551565b60405161018e9190612c05565b60405180910390f35b3480156101a357600080fd5b506101be60048036038101906101b99190612c5d565b6105e3565b6040516101cb9190612ccb565b60405180910390f35b3480156101e057600080fd5b506101fb60048036038101906101f69190612d12565b610629565b005b34801561020957600080fd5b50610212610740565b60405161021f9190612d61565b60405180910390f35b34801561023457600080fd5b5061024f600480360381019061024a9190612d7c565b61074a565b005b34801561025d57600080fd5b506102666107aa565b6040516102739190612f25565b60405180910390f35b34801561028857600080fd5b506102a3600480360381019061029e9190612d7c565b610a03565b005b3480156102b157600080fd5b506102ba610a23565b6040516102c79190612f25565b60405180910390f35b3480156102dc57600080fd5b506102f760048036038101906102f29190612c5d565b610d03565b6040516103049190612ccb565b60405180910390f35b34801561031957600080fd5b50610334600480360381019061032f9190612f47565b610d89565b6040516103419190612d61565b60405180910390f35b610364600480360381019061035f91906130a9565b610e40565b6040516103719190612d61565b60405180910390f35b610394600480360381019061038f9190613105565b610e82565b005b3480156103a257600080fd5b506103ab611077565b6040516103b89190612c05565b60405180910390f35b3480156103cd57600080fd5b506103e860048036038101906103e39190613171565b611109565b005b61040460048036038101906103ff9190612c5d565b61111f565b005b34801561041257600080fd5b5061042d60048036038101906104289190613252565b6111b9565b005b61044960048036038101906104449190612c5d565b61121b565b005b34801561045757600080fd5b506104606113fd565b60405161046d9190612f25565b60405180910390f35b34801561048257600080fd5b5061049d60048036038101906104989190612c5d565b6116dd565b6040516104aa9190612c05565b60405180910390f35b3480156104bf57600080fd5b506104da60048036038101906104d591906132d5565b6117ef565b6040516104e79190612b5a565b60405180910390f35b6000634906490660e01b7bffffffffffffffffffffffffffffffffffffffffffffffffffffffff1916827bffffffffffffffffffffffffffffffffffffffffffffffffffffffff1916148061054a575061054982611883565b5b9050919050565b60606000805461056090613344565b80601f016020809104026020016040519081016040528092919081815260200182805461058c90613344565b80156105d95780601f106105ae576101008083540402835291602001916105d9565b820191906000526020600020905b8154815290600101906020018083116105bc57829003601f168201915b5050505050905090565b60006105ee82611965565b6004600083815260200190815260200160002060009054906101000a900473ffffffffffffffffffffffffffffffffffffffff169050919050565b600061063482610d03565b90508073ffffffffffffffffffffffffffffffffffffffff168373ffffffffffffffffffffffffffffffffffffffff16036106a4576040517f08c379a000000000000000000000000000000000000000000000000000000000815260040161069b906133e7565b60405180910390fd5b8073ffffffffffffffffffffffffffffffffffffffff166106c36119b0565b73ffffffffffffffffffffffffffffffffffffffff1614806106f257506106f1816106ec6119b0565b6117ef565b5b610731576040517f08c379a000000000000000000000000000000000000000000000000000000000815260040161072890613479565b60405180910390fd5b61073b83836119b8565b505050565b6000600954905090565b61075b6107556119b0565b82611a71565b61079a576040517f08c379a00000000000000000000000000000000000000000000000000000000081526004016107919061350b565b60405180910390fd5b6107a5838383611b06565b505050565b606060006107b86007611dff565b905060006107c66008611dff565b826107d1919061355a565b90506000808267ffffffffffffffff8111156107f0576107ef612f7e565b5b60405190808252806020026020018201604052801561082957816020015b610816612a49565b81526020019060019003908161080e5790505b50905060005b848110156109f8573073ffffffffffffffffffffffffffffffffffffffff16600b600060018461085f919061358e565b815260200190815260200160002060020160009054906101000a900473ffffffffffffffffffffffffffffffffffffffff1673ffffffffffffffffffffffffffffffffffffffff16036109eb5760006001826108bb919061358e565b90506000600b60008381526020019081526020016000209050806040518060a0016040529081600082015481526020016001820160009054906101000a900473ffffffffffffffffffffffffffffffffffffffff1673ffffffffffffffffffffffffffffffffffffffff1673ffffffffffffffffffffffffffffffffffffffff1681526020016002820160009054906101000a900473ffffffffffffffffffffffffffffffffffffffff1673ffffffffffffffffffffffffffffffffffffffff1673ffffffffffffffffffffffffffffffffffffffff168152602001600382015481526020016004820160009054906101000a900460ff1615151515815250508486815181106109ce576109cd6135c2565b5b60200260200101819052506001856109e6919061358e565b945050505b808060010191505061082f565b508094505050505090565b610a1e838383604051806020016040528060008152506111b9565b505050565b60606000610a316007611dff565b905060008060005b83811015610ad3573373ffffffffffffffffffffffffffffffffffffffff16600b6000600184610a69919061358e565b815260200190815260200160002060010160009054906101000a900473ffffffffffffffffffffffffffffffffffffffff1673ffffffffffffffffffffffffffffffffffffffff1603610ac657600183610ac3919061358e565b92505b8080600101915050610a39565b5060008267ffffffffffffffff811115610af057610aef612f7e565b5b604051908082528060200260200182016040528015610b2957816020015b610b16612a49565b815260200190600190039081610b0e5790505b50905060005b84811015610cf8573373ffffffffffffffffffffffffffffffffffffffff16600b6000600184610b5f919061358e565b815260200190815260200160002060010160009054906101000a900473ffffffffffffffffffffffffffffffffffffffff1673ffffffffffffffffffffffffffffffffffffffff1603610ceb576000600182610bbb919061358e565b90506000600b60008381526020019081526020016000209050806040518060a0016040529081600082015481526020016001820160009054906101000a900473ffffffffffffffffffffffffffffffffffffffff1673ffffffffffffffffffffffffffffffffffffffff1673ffffffffffffffffffffffffffffffffffffffff1681526020016002820160009054906101000a900473ffffffffffffffffffffffffffffffffffffffff1673ffffffffffffffffffffffffffffffffffffffff1673ffffffffffffffffffffffffffffffffffffffff168152602001600382015481526020016004820160009054906101000a900460ff161515151581525050848681518110610cce57610ccd6135c2565b5b6020026020010181905250600185610ce6919061358e565b945050505b8080600101915050610b2f565b508094505050505090565b600080610d0f83611e0d565b9050600073ffffffffffffffffffffffffffffffffffffffff168173ffffffffffffffffffffffffffffffffffffffff1603610d80576040517f08c379a0000000000000000000000000000000000000000000000000000000008152600401610d779061363d565b60405180910390fd5b80915050919050565b60008073ffffffffffffffffffffffffffffffffffffffff168273ffffffffffffffffffffffffffffffffffffffff1603610df9576040517f08c379a0000000000000000000000000000000000000000000000000000000008152600401610df0906136cf565b60405180910390fd5b600360008373ffffffffffffffffffffffffffffffffffffffff1673ffffffffffffffffffffffffffffffffffffffff168152602001908152602001600020549050919050565b6000610e4c6007611e4a565b6000610e586007611dff565b9050610e643382611e60565b610e6e818561207d565b610e788184612121565b8091505092915050565b3373ffffffffffffffffffffffffffffffffffffffff16600b600084815260200190815260200160002060020160009054906101000a900473ffffffffffffffffffffffffffffffffffffffff1673ffffffffffffffffffffffffffffffffffffffff1614610f26576040517f08c379a0000000000000000000000000000000000000000000000000000000008152600401610f1d90613761565b60405180910390fd5b6009543414610f6a576040517f08c379a0000000000000000000000000000000000000000000000000000000008152600401610f61906137f3565b60405180910390fd5b6000600b600084815260200190815260200160002060040160006101000a81548160ff02191690831515021790555080600b60008481526020019081526020016000206003018190555033600b600084815260200190815260200160002060010160006101000a81548173ffffffffffffffffffffffffffffffffffffffff021916908373ffffffffffffffffffffffffffffffffffffffff16021790555030600b600084815260200190815260200160002060020160006101000a81548173ffffffffffffffffffffffffffffffffffffffff021916908373ffffffffffffffffffffffffffffffffffffffff1602179055506110686008612324565b611073333084611b06565b5050565b60606001805461108690613344565b80601f01602080910402602001604051908101604052809291908181526020018280546110b290613344565b80156110ff5780601f106110d4576101008083540402835291602001916110ff565b820191906000526020600020905b8154815290600101906020018083116110e257829003601f168201915b5050505050905090565b61111b6111146119b0565b8383612380565b5050565b600a60009054906101000a900473ffffffffffffffffffffffffffffffffffffffff1673ffffffffffffffffffffffffffffffffffffffff163373ffffffffffffffffffffffffffffffffffffffff16146111af576040517f08c379a00000000000000000000000000000000000000000000000000000000081526004016111a690613885565b60405180910390fd5b8060098190555050565b6111ca6111c46119b0565b83611a71565b611209576040517f08c379a00000000000000000000000000000000000000000000000000000000081526004016112009061350b565b60405180910390fd5b611215848484846124ec565b50505050565b6000600b6000838152602001908152602001600020600301549050803414611278576040517f08c379a000000000000000000000000000000000000000000000000000000000815260040161126f906138f1565b60405180910390fd5b33600b600084815260200190815260200160002060020160006101000a81548173ffffffffffffffffffffffffffffffffffffffff021916908373ffffffffffffffffffffffffffffffffffffffff1602179055506001600b600084815260200190815260200160002060040160006101000a81548160ff0219169083151502179055506113066008611e4a565b611311303384611b06565b600a60009054906101000a900473ffffffffffffffffffffffffffffffffffffffff1673ffffffffffffffffffffffffffffffffffffffff166108fc6009549081150290604051600060405180830381858888f1935050505015801561137b573d6000803e3d6000fd5b50600b600083815260200190815260200160002060010160009054906101000a900473ffffffffffffffffffffffffffffffffffffffff1673ffffffffffffffffffffffffffffffffffffffff166108fc349081150290604051600060405180830381858888f193505050501580156113f8573d6000803e3d6000fd5b505050565b6060600061140b6007611dff565b905060008060005b838110156114ad573373ffffffffffffffffffffffffffffffffffffffff16600b6000600184611443919061358e565b815260200190815260200160002060020160009054906101000a900473ffffffffffffffffffffffffffffffffffffffff1673ffffffffffffffffffffffffffffffffffffffff16036114a05760018361149d919061358e565b92505b8080600101915050611413565b5060008267ffffffffffffffff8111156114ca576114c9612f7e565b5b60405190808252806020026020018201604052801561150357816020015b6114f0612a49565b8152602001906001900390816114e85790505b50905060005b848110156116d2573373ffffffffffffffffffffffffffffffffffffffff16600b6000600184611539919061358e565b815260200190815260200160002060020160009054906101000a900473ffffffffffffffffffffffffffffffffffffffff1673ffffffffffffffffffffffffffffffffffffffff16036116c5576000600182611595919061358e565b90506000600b60008381526020019081526020016000209050806040518060a0016040529081600082015481526020016001820160009054906101000a900473ffffffffffffffffffffffffffffffffffffffff1673ffffffffffffffffffffffffffffffffffffffff1673ffffffffffffffffffffffffffffffffffffffff1681526020016002820160009054906101000a900473ffffffffffffffffffffffffffffffffffffffff1673ffffffffffffffffffffffffffffffffffffffff1673ffffffffffffffffffffffffffffffffffffffff168152602001600382015481526020016004820160009054906101000a900460ff1615151515815250508486815181106116a8576116a76135c2565b5b60200260200101819052506001856116c0919061358e565b945050505b8080600101915050611509565b508094505050505090565b60606116e882611965565b600060066000848152602001908152602001600020805461170890613344565b80601f016020809104026020016040519081016040528092919081815260200182805461173490613344565b80156117815780601f1061175657610100808354040283529160200191611781565b820191906000526020600020905b81548152906001019060200180831161176457829003601f168201915b505050505090506000611792612548565b905060008151036117a75781925050506117ea565b6000825111156117dc5780826040516020016117c492919061394d565b604051602081830303815290604052925050506117ea565b6117e58461255f565b925050505b919050565b6000600560008473ffffffffffffffffffffffffffffffffffffffff1673ffffffffffffffffffffffffffffffffffffffff16815260200190815260200160002060008373ffffffffffffffffffffffffffffffffffffffff1673ffffffffffffffffffffffffffffffffffffffff16815260200190815260200160002060009054906101000a900460ff16905092915050565b60007f80ac58cd000000000000000000000000000000000000000000000000000000007bffffffffffffffffffffffffffffffffffffffffffffffffffffffff1916827bffffffffffffffffffffffffffffffffffffffffffffffffffffffff1916148061194e57507f5b5e139f000000000000000000000000000000000000000000000000000000007bffffffffffffffffffffffffffffffffffffffffffffffffffffffff1916827bffffffffffffffffffffffffffffffffffffffffffffffffffffffff1916145b8061195e575061195d826125c7565b5b9050919050565b61196e81612631565b6119ad576040517f08c379a00000000000000000000000000000000000000000000000000000000081526004016119a49061363d565b60405180910390fd5b50565b600033905090565b816004600083815260200190815260200160002060006101000a81548173ffffffffffffffffffffffffffffffffffffffff021916908373ffffffffffffffffffffffffffffffffffffffff160217905550808273ffffffffffffffffffffffffffffffffffffffff16611a2b83610d03565b73ffffffffffffffffffffffffffffffffffffffff167f8c5be1e5ebec7d5bd14f71427d1e84f3dd0314c0f7b2291e5b200ac8c7c3b92560405160405180910390a45050565b600080611a7d83610d03565b90508073ffffffffffffffffffffffffffffffffffffffff168473ffffffffffffffffffffffffffffffffffffffff161480611abf5750611abe81856117ef565b5b80611afd57508373ffffffffffffffffffffffffffffffffffffffff16611ae5846105e3565b73ffffffffffffffffffffffffffffffffffffffff16145b91505092915050565b8273ffffffffffffffffffffffffffffffffffffffff16611b2682610d03565b73ffffffffffffffffffffffffffffffffffffffff1614611b7c576040517f08c379a0000000000000000000000000000000000000000000000000000000008152600401611b73906139e3565b60405180910390fd5b600073ffffffffffffffffffffffffffffffffffffffff168273ffffffffffffffffffffffffffffffffffffffff1603611beb576040517f08c379a0000000000000000000000000000000000000000000000000000000008152600401611be290613a75565b60405180910390fd5b611bf88383836001612672565b8273ffffffffffffffffffffffffffffffffffffffff16611c1882610d03565b73ffffffffffffffffffffffffffffffffffffffff1614611c6e576040517f08c379a0000000000000000000000000000000000000000000000000000000008152600401611c65906139e3565b60405180910390fd5b6004600082815260200190815260200160002060006101000a81549073ffffffffffffffffffffffffffffffffffffffff02191690556001600360008573ffffffffffffffffffffffffffffffffffffffff1673ffffffffffffffffffffffffffffffffffffffff168152602001908152602001600020600082825403925050819055506001600360008473ffffffffffffffffffffffffffffffffffffffff1673ffffffffffffffffffffffffffffffffffffffff16815260200190815260200160002060008282540192505081905550816002600083815260200190815260200160002060006101000a81548173ffffffffffffffffffffffffffffffffffffffff021916908373ffffffffffffffffffffffffffffffffffffffff160217905550808273ffffffffffffffffffffffffffffffffffffffff168473ffffffffffffffffffffffffffffffffffffffff167fddf252ad1be2c89b69c2b068fc378daa952ba7f163c4a11628f55a4df523b3ef60405160405180910390a4611dfa8383836001612678565b505050565b600081600001549050919050565b60006002600083815260200190815260200160002060009054906101000a900473ffffffffffffffffffffffffffffffffffffffff169050919050565b6001816000016000828254019250508190555050565b600073ffffffffffffffffffffffffffffffffffffffff168273ffffffffffffffffffffffffffffffffffffffff1603611ecf576040517f08c379a0000000000000000000000000000000000000000000000000000000008152600401611ec690613ae1565b60405180910390fd5b611ed881612631565b15611f18576040517f08c379a0000000000000000000000000000000000000000000000000000000008152600401611f0f90613b4d565b60405180910390fd5b611f26600083836001612672565b611f2f81612631565b15611f6f576040517f08c379a0000000000000000000000000000000000000000000000000000000008152600401611f6690613b4d565b60405180910390fd5b6001600360008473ffffffffffffffffffffffffffffffffffffffff1673ffffffffffffffffffffffffffffffffffffffff16815260200190815260200160002060008282540192505081905550816002600083815260200190815260200160002060006101000a81548173ffffffffffffffffffffffffffffffffffffffff021916908373ffffffffffffffffffffffffffffffffffffffff160217905550808273ffffffffffffffffffffffffffffffffffffffff16600073ffffffffffffffffffffffffffffffffffffffff167fddf252ad1be2c89b69c2b068fc378daa952ba7f163c4a11628f55a4df523b3ef60405160405180910390a4612079600083836001612678565b5050565b61208682612631565b6120c5576040517f08c379a00000000000000000000000000000000000000000000000000000000081526004016120bc90613bdf565b60405180910390fd5b806006600084815260200190815260200160002090816120e59190613dab565b507ff8e1a15aba9398e019f0b49df1a4fde98ee17ae345cb5f6b5e2c27f5033e8ce7826040516121159190612d61565b60405180910390a15050565b60008111612164576040517f08c379a000000000000000000000000000000000000000000000000000000000815260040161215b90613ec9565b60405180910390fd5b60095434146121a8576040517f08c379a000000000000000000000000000000000000000000000000000000000815260040161219f906137f3565b60405180910390fd5b6040518060a001604052808381526020013373ffffffffffffffffffffffffffffffffffffffff1681526020013073ffffffffffffffffffffffffffffffffffffffff16815260200182815260200160001515815250600b60008481526020019081526020016000206000820151816000015560208201518160010160006101000a81548173ffffffffffffffffffffffffffffffffffffffff021916908373ffffffffffffffffffffffffffffffffffffffff16021790555060408201518160020160006101000a81548173ffffffffffffffffffffffffffffffffffffffff021916908373ffffffffffffffffffffffffffffffffffffffff1602179055506060820151816003015560808201518160040160006101000a81548160ff0219169083151502179055509050506122e1333084611b06565b817fdebdb32cb5230ab727c9c361b16fdb2015df225c10e6a3e7f60ecd5dc5be451633308460006040516123189493929190613ee9565b60405180910390a25050565b60008160000154905060008111612370576040517f08c379a000000000000000000000000000000000000000000000000000000000815260040161236790613f7a565b60405180910390fd5b6001810382600001819055505050565b8173ffffffffffffffffffffffffffffffffffffffff168373ffffffffffffffffffffffffffffffffffffffff16036123ee576040517f08c379a00000000000000000000000000000000000000000000000000000000081526004016123e590613fe6565b60405180910390fd5b80600560008573ffffffffffffffffffffffffffffffffffffffff1673ffffffffffffffffffffffffffffffffffffffff16815260200190815260200160002060008473ffffffffffffffffffffffffffffffffffffffff1673ffffffffffffffffffffffffffffffffffffffff16815260200190815260200160002060006101000a81548160ff0219169083151502179055508173ffffffffffffffffffffffffffffffffffffffff168373ffffffffffffffffffffffffffffffffffffffff167f17307eab39ab6107e8899845ad3d59bd9653f200f220920489ca2b5937696c31836040516124df9190612b5a565b60405180910390a3505050565b6124f7848484611b06565b6125038484848461267e565b612542576040517f08c379a000000000000000000000000000000000000000000000000000000000815260040161253990614078565b60405180910390fd5b50505050565b606060405180602001604052806000815250905090565b606061256a82611965565b6000612574612548565b9050600081511161259457604051806020016040528060008152506125bf565b8061259e84612805565b6040516020016125af92919061394d565b6040516020818303038152906040525b915050919050565b60007f01ffc9a7000000000000000000000000000000000000000000000000000000007bffffffffffffffffffffffffffffffffffffffffffffffffffffffff1916827bffffffffffffffffffffffffffffffffffffffffffffffffffffffff1916149050919050565b60008073ffffffffffffffffffffffffffffffffffffffff1661265383611e0d565b73ffffffffffffffffffffffffffffffffffffffff1614159050919050565b50505050565b50505050565b600061269f8473ffffffffffffffffffffffffffffffffffffffff166128d3565b156127f8578373ffffffffffffffffffffffffffffffffffffffff1663150b7a026126c86119b0565b8786866040518563ffffffff1660e01b81526004016126ea94939291906140ed565b6020604051808303816000875af192505050801561272657506040513d601f19601f82011682018060405250810190612723919061414e565b60015b6127a8573d8060008114612756576040519150601f19603f3d011682016040523d82523d6000602084013e61275b565b606091505b5060008151036127a0576040517f08c379a000000000000000000000000000000000000000000000000000000000815260040161279790614078565b60405180910390fd5b805181602001fd5b63150b7a0260e01b7bffffffffffffffffffffffffffffffffffffffffffffffffffffffff1916817bffffffffffffffffffffffffffffffffffffffffffffffffffffffff1916149150506127fd565b600190505b949350505050565b606060006001612814846128f6565b01905060008167ffffffffffffffff81111561283357612832612f7e565b5b6040519080825280601f01601f1916602001820160405280156128655781602001600182028036833780820191505090505b509050600082602001820190505b6001156128c8578080600190039150507f3031323334353637383961626364656600000000000000000000000000000000600a86061a8153600a85816128bc576128bb61417b565b5b04945060008503612873575b819350505050919050565b6000808273ffffffffffffffffffffffffffffffffffffffff163b119050919050565b600080600090507a184f03e93ff9f4daa797ed6e38ed64bf6a1f0100000000000000008310612954577a184f03e93ff9f4daa797ed6e38ed64bf6a1f010000000000000000838161294a5761294961417b565b5b0492506040810190505b6d04ee2d6d415b85acef81000000008310612991576d04ee2d6d415b85acef810000000083816129875761298661417b565b5b0492506020810190505b662386f26fc1000083106129c057662386f26fc1000083816129b6576129b561417b565b5b0492506010810190505b6305f5e10083106129e9576305f5e10083816129df576129de61417b565b5b0492506008810190505b6127108310612a0e576127108381612a0457612a0361417b565b5b0492506004810190505b60648310612a315760648381612a2757612a2661417b565b5b0492506002810190505b600a8310612a40576001810190505b80915050919050565b6040518060a0016040528060008152602001600073ffffffffffffffffffffffffffffffffffffffff168152602001600073ffffffffffffffffffffffffffffffffffffffff168152602001600081526020016000151581525090565b6000604051905090565b600080fd5b600080fd5b60007fffffffff0000000000000000000000000000000000000000000000000000000082169050919050565b612aef81612aba565b8114612afa57600080fd5b50565b600081359050612b0c81612ae6565b92915050565b600060208284031215612b2857612b27612ab0565b5b6000612b3684828501612afd565b91505092915050565b60008115159050919050565b612b5481612b3f565b82525050565b6000602082019050612b6f6000830184612b4b565b92915050565b600081519050919050565b600082825260208201905092915050565b60005b83811015612baf578082015181840152602081019050612b94565b60008484015250505050565b6000601f19601f8301169050919050565b6000612bd782612b75565b612be18185612b80565b9350612bf1818560208601612b91565b612bfa81612bbb565b840191505092915050565b60006020820190508181036000830152612c1f8184612bcc565b905092915050565b6000819050919050565b612c3a81612c27565b8114612c4557600080fd5b50565b600081359050612c5781612c31565b92915050565b600060208284031215612c7357612c72612ab0565b5b6000612c8184828501612c48565b91505092915050565b600073ffffffffffffffffffffffffffffffffffffffff82169050919050565b6000612cb582612c8a565b9050919050565b612cc581612caa565b82525050565b6000602082019050612ce06000830184612cbc565b92915050565b612cef81612caa565b8114612cfa57600080fd5b50565b600081359050612d0c81612ce6565b92915050565b60008060408385031215612d2957612d28612ab0565b5b6000612d3785828601612cfd565b9250506020612d4885828601612c48565b9150509250929050565b612d5b81612c27565b82525050565b6000602082019050612d766000830184612d52565b92915050565b600080600060608486031215612d9557612d94612ab0565b5b6000612da386828701612cfd565b9350506020612db486828701612cfd565b9250506040612dc586828701612c48565b9150509250925092565b600081519050919050565b600082825260208201905092915050565b6000819050602082019050919050565b612e0481612c27565b82525050565b6000612e1582612c8a565b9050919050565b612e2581612e0a565b82525050565b612e3481612b3f565b82525050565b60a082016000820151612e506000850182612dfb565b506020820151612e636020850182612e1c565b506040820151612e766040850182612e1c565b506060820151612e896060850182612dfb565b506080820151612e9c6080850182612e2b565b50505050565b6000612eae8383612e3a565b60a08301905092915050565b6000602082019050919050565b6000612ed282612dcf565b612edc8185612dda565b9350612ee783612deb565b8060005b83811015612f18578151612eff8882612ea2565b9750612f0a83612eba565b925050600181019050612eeb565b5085935050505092915050565b60006020820190508181036000830152612f3f8184612ec7565b905092915050565b600060208284031215612f5d57612f5c612ab0565b5b6000612f6b84828501612cfd565b91505092915050565b600080fd5b600080fd5b7f4e487b7100000000000000000000000000000000000000000000000000000000600052604160045260246000fd5b612fb682612bbb565b810181811067ffffffffffffffff82111715612fd557612fd4612f7e565b5b80604052505050565b6000612fe8612aa6565b9050612ff48282612fad565b919050565b600067ffffffffffffffff82111561301457613013612f7e565b5b61301d82612bbb565b9050602081019050919050565b82818337600083830152505050565b600061304c61304784612ff9565b612fde565b90508281526020810184848401111561306857613067612f79565b5b61307384828561302a565b509392505050565b600082601f8301126130905761308f612f74565b5b81356130a0848260208601613039565b91505092915050565b600080604083850312156130c0576130bf612ab0565b5b600083013567ffffffffffffffff8111156130de576130dd612ab5565b5b6130ea8582860161307b565b92505060206130fb85828601612c48565b9150509250929050565b6000806040838503121561311c5761311b612ab0565b5b600061312a85828601612c48565b925050602061313b85828601612c48565b9150509250929050565b61314e81612b3f565b811461315957600080fd5b50565b60008135905061316b81613145565b92915050565b6000806040838503121561318857613187612ab0565b5b600061319685828601612cfd565b92505060206131a78582860161315c565b9150509250929050565b600067ffffffffffffffff8211156131cc576131cb612f7e565b5b6131d582612bbb565b9050602081019050919050565b60006131f56131f0846131b1565b612fde565b90508281526020810184848401111561321157613210612f79565b5b61321c84828561302a565b509392505050565b600082601f83011261323957613238612f74565b5b81356132498482602086016131e2565b91505092915050565b6000806000806080858703121561326c5761326b612ab0565b5b600061327a87828801612cfd565b945050602061328b87828801612cfd565b935050604061329c87828801612c48565b925050606085013567ffffffffffffffff8111156132bd576132bc612ab5565b5b6132c987828801613224565b91505092959194509250565b600080604083850312156132ec576132eb612ab0565b5b60006132fa85828601612cfd565b925050602061330b85828601612cfd565b9150509250929050565b7f4e487b7100000000000000000000000000000000000000000000000000000000600052602260045260246000fd5b6000600282049050600182168061335c57607f821691505b60208210810361336f5761336e613315565b5b50919050565b7f4552433732313a20617070726f76616c20746f2063757272656e74206f776e6560008201527f7200000000000000000000000000000000000000000000000000000000000000602082015250565b60006133d1602183612b80565b91506133dc82613375565b604082019050919050565b60006020820190508181036000830152613400816133c4565b9050919050565b7f4552433732313a20617070726f76652063616c6c6572206973206e6f7420746f60008201527f6b656e206f776e6572206f7220617070726f76656420666f7220616c6c000000602082015250565b6000613463603d83612b80565b915061346e82613407565b604082019050919050565b6000602082019050818103600083015261349281613456565b9050919050565b7f4552433732313a2063616c6c6572206973206e6f7420746f6b656e206f776e6560008201527f72206f7220617070726f76656400000000000000000000000000000000000000602082015250565b60006134f5602d83612b80565b915061350082613499565b604082019050919050565b60006020820190508181036000830152613524816134e8565b9050919050565b7f4e487b7100000000000000000000000000000000000000000000000000000000600052601160045260246000fd5b600061356582612c27565b915061357083612c27565b92508282039050818111156135885761358761352b565b5b92915050565b600061359982612c27565b91506135a483612c27565b92508282019050808211156135bc576135bb61352b565b5b92915050565b7f4e487b7100000000000000000000000000000000000000000000000000000000600052603260045260246000fd5b7f4552433732313a20696e76616c696420746f6b656e2049440000000000000000600082015250565b6000613627601883612b80565b9150613632826135f1565b602082019050919050565b600060208201905081810360008301526136568161361a565b9050919050565b7f4552433732313a2061646472657373207a65726f206973206e6f74206120766160008201527f6c6964206f776e65720000000000000000000000000000000000000000000000602082015250565b60006136b9602983612b80565b91506136c48261365d565b604082019050919050565b600060208201905081810360008301526136e8816136ac565b9050919050565b7f4f6e6c79206974656d206f776e65722063616e20706572666f726d207468697360008201527f206f7065726174696f6e00000000000000000000000000000000000000000000602082015250565b600061374b602a83612b80565b9150613756826136ef565b604082019050919050565b6000602082019050818103600083015261377a8161373e565b9050919050565b7f5072696365206d75737420626520657175616c20746f206c697374696e67207060008201527f7269636500000000000000000000000000000000000000000000000000000000602082015250565b60006137dd602483612b80565b91506137e882613781565b604082019050919050565b6000602082019050818103600083015261380c816137d0565b9050919050565b7f6f6e6c79206f776e6572206f6620746865206d61726b6574706c61636520636160008201527f6e206368616e676520746865206c697374696e67207072696365000000000000602082015250565b600061386f603a83612b80565b915061387a82613813565b604082019050919050565b6000602082019050818103600083015261389e81613862565b9050919050565b7f506c65617365207375626d6974207468652061736b696e672070726963650000600082015250565b60006138db601e83612b80565b91506138e6826138a5565b602082019050919050565b6000602082019050818103600083015261390a816138ce565b9050919050565b600081905092915050565b600061392782612b75565b6139318185613911565b9350613941818560208601612b91565b80840191505092915050565b6000613959828561391c565b9150613965828461391c565b91508190509392505050565b7f4552433732313a207472616e736665722066726f6d20696e636f72726563742060008201527f6f776e6572000000000000000000000000000000000000000000000000000000602082015250565b60006139cd602583612b80565b91506139d882613971565b604082019050919050565b600060208201905081810360008301526139fc816139c0565b9050919050565b7f4552433732313a207472616e7366657220746f20746865207a65726f2061646460008201527f7265737300000000000000000000000000000000000000000000000000000000602082015250565b6000613a5f602483612b80565b9150613a6a82613a03565b604082019050919050565b60006020820190508181036000830152613a8e81613a52565b9050919050565b7f4552433732313a206d696e7420746f20746865207a65726f2061646472657373600082015250565b6000613acb602083612b80565b9150613ad682613a95565b602082019050919050565b60006020820190508181036000830152613afa81613abe565b9050919050565b7f4552433732313a20746f6b656e20616c7265616479206d696e74656400000000600082015250565b6000613b37601c83612b80565b9150613b4282613b01565b602082019050919050565b60006020820190508181036000830152613b6681613b2a565b9050919050565b7f45524337323155524953746f726167653a2055524920736574206f66206e6f6e60008201527f6578697374656e7420746f6b656e000000000000000000000000000000000000602082015250565b6000613bc9602e83612b80565b9150613bd482613b6d565b604082019050919050565b60006020820190508181036000830152613bf881613bbc565b9050919050565b60008190508160005260206000209050919050565b60006020601f8301049050919050565b600082821b905092915050565b600060088302613c617fffffffffffffffffffffffffffffffffffffffffffffffffffffffffffffffff82613c24565b613c6b8683613c24565b95508019841693508086168417925050509392505050565b6000819050919050565b6000613ca8613ca3613c9e84612c27565b613c83565b612c27565b9050919050565b6000819050919050565b613cc283613c8d565b613cd6613cce82613caf565b848454613c31565b825550505050565b600090565b613ceb613cde565b613cf6818484613cb9565b505050565b5b81811015613d1a57613d0f600082613ce3565b600181019050613cfc565b5050565b601f821115613d5f57613d3081613bff565b613d3984613c14565b81016020851015613d48578190505b613d5c613d5485613c14565b830182613cfb565b50505b505050565b600082821c905092915050565b6000613d8260001984600802613d64565b1980831691505092915050565b6000613d9b8383613d71565b9150826002028217905092915050565b613db482612b75565b67ffffffffffffffff811115613dcd57613dcc612f7e565b5b613dd78254613344565b613de2828285613d1e565b600060209050601f831160018114613e155760008415613e03578287015190505b613e0d8582613d8f565b865550613e75565b601f198416613e2386613bff565b60005b82811015613e4b57848901518255600182019150602085019450602081019050613e26565b86831015613e685784890151613e64601f891682613d71565b8355505b6001600288020188555050505b505050505050565b7f5072696365206d7573742062652061746c656173742031000000000000000000600082015250565b6000613eb3601783612b80565b9150613ebe82613e7d565b602082019050919050565b60006020820190508181036000830152613ee281613ea6565b9050919050565b6000608082019050613efe6000830187612cbc565b613f0b6020830186612cbc565b613f186040830185612d52565b613f256060830184612b4b565b95945050505050565b7f436f756e7465723a2064656372656d656e74206f766572666c6f770000000000600082015250565b6000613f64601b83612b80565b9150613f6f82613f2e565b602082019050919050565b60006020820190508181036000830152613f9381613f57565b9050919050565b7f4552433732313a20617070726f766520746f2063616c6c657200000000000000600082015250565b6000613fd0601983612b80565b9150613fdb82613f9a565b602082019050919050565b60006020820190508181036000830152613fff81613fc3565b9050919050565b7f4552433732313a207472616e7366657220746f206e6f6e20455243373231526560008201527f63656976657220696d706c656d656e7465720000000000000000000000000000602082015250565b6000614062603283612b80565b915061406d82614006565b604082019050919050565b6000602082019050818103600083015261409181614055565b9050919050565b600081519050919050565b600082825260208201905092915050565b60006140bf82614098565b6140c981856140a3565b93506140d9818560208601612b91565b6140e281612bbb565b840191505092915050565b60006080820190506141026000830187612cbc565b61410f6020830186612cbc565b61411c6040830185612d52565b818103606083015261412e81846140b4565b905095945050505050565b60008151905061414881612ae6565b92915050565b60006020828403121561416457614163612ab0565b5b600061417284828501614139565b91505092915050565b7f4e487b7100000000000000000000000000000000000000000000000000000000600052601260045260246000fdfea2646970667358221220842f2f2d991ee1d95a19c8a4d4f3728c5c79698e095bb38fa224f6b8aa6853a964736f6c634300081c0033",
  "linkReferences": {},
  "deployedLinkReferences": {}
}